{
  "_format": "hh-sol-artifact-1",
  "contractName": "ToDoList",
  "sourceName": "contracts/todoList.sol",
  "abi": [
    {
      "inputs": [],
      "stateMutability": "nonpayable",
      "type": "constructor"
    },
    {
      "anonymous": false,
      "inputs": [
        {
          "indexed": true,
          "internalType": "address",
          "name": "account",
          "type": "address"
        },
        {
          "indexed": true,
          "internalType": "uint256",
          "name": "userId",
          "type": "uint256"
        },
        {
          "indexed": false,
          "internalType": "string",
          "name": "message",
          "type": "string"
        },
        {
          "indexed": false,
          "internalType": "bool",
          "name": "completed",
          "type": "bool"
        }
      ],
      "name": "ToDoEvent",
      "type": "event"
    },
    {
      "inputs": [],
      "name": "_idUser",
      "outputs": [
        {
          "internalType": "uint256",
          "name": "",
          "type": "uint256"
        }
      ],
      "stateMutability": "view",
      "type": "function"
    },
    {
      "inputs": [
        {
          "internalType": "string",
          "name": "_message",
          "type": "string"
        }
      ],
      "name": "createList",
      "outputs": [],
      "stateMutability": "nonpayable",
      "type": "function"
    },
    {
      "inputs": [
        {
          "internalType": "uint256",
          "name": "",
          "type": "uint256"
        }
      ],
      "name": "creaters",
      "outputs": [
        {
          "internalType": "address",
          "name": "",
          "type": "address"
        }
      ],
      "stateMutability": "view",
      "type": "function"
    },
    {
      "inputs": [],
      "name": "getAddress",
      "outputs": [
        {
          "internalType": "string[]",
          "name": "",
          "type": "string[]"
        }
      ],
      "stateMutability": "view",
      "type": "function"
    },
    {
      "inputs": [],
      "name": "getCreatrors",
      "outputs": [
        {
          "internalType": "address[]",
          "name": "",
          "type": "address[]"
        }
      ],
      "stateMutability": "view",
      "type": "function"
    },
    {
      "inputs": [
        {
          "internalType": "address",
          "name": "_address",
          "type": "address"
        }
      ],
      "name": "getCtreatorData",
      "outputs": [
        {
          "internalType": "address",
          "name": "",
          "type": "address"
        },
        {
          "internalType": "uint256",
          "name": "",
          "type": "uint256"
        },
        {
          "internalType": "string",
          "name": "",
          "type": "string"
        },
        {
          "internalType": "bool",
          "name": "",
          "type": "bool"
        }
      ],
      "stateMutability": "view",
      "type": "function"
    },
    {
      "inputs": [
        {
          "internalType": "uint256",
          "name": "",
          "type": "uint256"
        }
      ],
      "name": "message",
      "outputs": [
        {
          "internalType": "string",
          "name": "",
          "type": "string"
        }
      ],
      "stateMutability": "view",
      "type": "function"
    },
    {
      "inputs": [
        {
          "internalType": "uint256",
          "name": "",
          "type": "uint256"
        }
      ],
      "name": "messageId",
      "outputs": [
        {
          "internalType": "uint256",
          "name": "",
          "type": "uint256"
        }
      ],
      "stateMutability": "view",
      "type": "function"
    },
    {
      "inputs": [],
      "name": "ownerOfContract",
      "outputs": [
        {
          "internalType": "address",
          "name": "",
          "type": "address"
        }
      ],
      "stateMutability": "view",
      "type": "function"
    },
    {
      "inputs": [
        {
          "internalType": "address",
          "name": "",
          "type": "address"
        }
      ],
      "name": "toDoListApps",
      "outputs": [
        {
          "internalType": "address",
          "name": "account",
          "type": "address"
        },
        {
          "internalType": "uint256",
          "name": "userId",
          "type": "uint256"
        },
        {
          "internalType": "string",
          "name": "message",
          "type": "string"
        },
        {
          "internalType": "bool",
          "name": "completed",
          "type": "bool"
        }
      ],
      "stateMutability": "view",
      "type": "function"
    },
    {
      "inputs": [
        {
          "internalType": "address",
          "name": "_creator",
          "type": "address"
        }
      ],
      "name": "toggle",
      "outputs": [],
      "stateMutability": "nonpayable",
      "type": "function"
    }
  ],
  "bytecode": "0x608060405234801561001057600080fd5b5033600160006101000a81548173ffffffffffffffffffffffffffffffffffffffff021916908373ffffffffffffffffffffffffffffffffffffffff16021790555061134a806100616000396000f3fe608060405234801561001057600080fd5b50600436106100a95760003560e01c806374310d081161007157806374310d081461016657806394432cc514610199578063b8dcc68f146101b7578063d1e8507b146101d3578063e238823b14610203578063e5b7b8a814610236576100a9565b806321e47d46146100ae57806324548380146100de57806338cc48311461010e578063468229ae1461012c578063588f9acc1461014a575b600080fd5b6100c860048036038101906100c39190610a34565b610254565b6040516100d59190610a70565b60405180910390f35b6100f860048036038101906100f39190610a34565b610278565b6040516101059190610acc565b60405180910390f35b6101166102b7565b6040516101239190610c39565b60405180910390f35b610134610390565b6040516101419190610acc565b60405180910390f35b610164600480360381019061015f9190610c87565b6103b6565b005b610180600480360381019061017b9190610c87565b61042b565b6040516101909493929190610d19565b60405180910390f35b6101a1610510565b6040516101ae9190610a70565b60405180910390f35b6101d160048036038101906101cc9190610dca565b610516565b005b6101ed60048036038101906101e89190610a34565b61071c565b6040516101fa9190610e17565b60405180910390f35b61021d60048036038101906102189190610c87565b6107c8565b60405161022d9493929190610d19565b60405180910390f35b61023e61094d565b60405161024b9190610ef7565b60405180910390f35b6004818154811061026457600080fd5b906000526020600020016000915090505481565b6002818154811061028857600080fd5b906000526020600020016000915054906101000a900473ffffffffffffffffffffffffffffffffffffffff1681565b60606003805480602002602001604051908101604052809291908181526020016000905b828210156103875783829060005260206000200180546102fa90610f48565b80601f016020809104026020016040519081016040528092919081815260200182805461032690610f48565b80156103735780601f1061034857610100808354040283529160200191610373565b820191906000526020600020905b81548152906001019060200180831161035657829003601f168201915b5050505050815260200190600101906102db565b50505050905090565b600160009054906101000a900473ffffffffffffffffffffffffffffffffffffffff1681565b6000600560008373ffffffffffffffffffffffffffffffffffffffff1673ffffffffffffffffffffffffffffffffffffffff16815260200190815260200160002090508060030160009054906101000a900460ff16158160030160006101000a81548160ff0219169083151502179055505050565b60056020528060005260406000206000915090508060000160009054906101000a900473ffffffffffffffffffffffffffffffffffffffff169080600101549080600201805461047a90610f48565b80601f01602080910402602001604051908101604052809291908181526020018280546104a690610f48565b80156104f35780601f106104c8576101008083540402835291602001916104f3565b820191906000526020600020905b8154815290600101906020018083116104d657829003601f168201915b5050505050908060030160009054906101000a900460ff16905084565b60005481565b61051e6109db565b6000805490506000600560003373ffffffffffffffffffffffffffffffffffffffff1673ffffffffffffffffffffffffffffffffffffffff1681526020019081526020016000209050338160000160006101000a81548173ffffffffffffffffffffffffffffffffffffffff021916908373ffffffffffffffffffffffffffffffffffffffff16021790555083838260020191826105bd92919061115f565b5060008160030160006101000a81548160ff0219169083151502179055508181600101819055506002339080600181540180825580915050600190039060005260206000200160009091909190916101000a81548173ffffffffffffffffffffffffffffffffffffffff021916908373ffffffffffffffffffffffffffffffffffffffff160217905550600384849091806001815401808255809150506001900390600052602060002001600090919290919290919290919250918261068492919061115f565b50600482908060018154018082558091505060019003906000526020600020016000909190919091505580600101543373ffffffffffffffffffffffffffffffffffffffff167f97cb199a6fede85e8843b14a3b82273a76130b0e671f8803ce27aa90d52ee11486868560030160009054906101000a900460ff1660405161070e9392919061126b565b60405180910390a350505050565b6003818154811061072c57600080fd5b90600052602060002001600091509050805461074790610f48565b80601f016020809104026020016040519081016040528092919081815260200182805461077390610f48565b80156107c05780601f10610795576101008083540402835291602001916107c0565b820191906000526020600020905b8154815290600101906020018083116107a357829003601f168201915b505050505081565b6000806060600080600560008773ffffffffffffffffffffffffffffffffffffffff1673ffffffffffffffffffffffffffffffffffffffff1681526020019081526020016000206040518060800160405290816000820160009054906101000a900473ffffffffffffffffffffffffffffffffffffffff1673ffffffffffffffffffffffffffffffffffffffff1673ffffffffffffffffffffffffffffffffffffffff1681526020016001820154815260200160028201805461088a90610f48565b80601f01602080910402602001604051908101604052809291908181526020018280546108b690610f48565b80156109035780601f106108d857610100808354040283529160200191610903565b820191906000526020600020905b8154815290600101906020018083116108e657829003601f168201915b505050505081526020016003820160009054906101000a900460ff161515151581525050905080600001518160200151826040015183606001519450945094509450509193509193565b606060028054806020026020016040519081016040528092919081815260200182805480156109d157602002820191906000526020600020905b8160009054906101000a900473ffffffffffffffffffffffffffffffffffffffff1673ffffffffffffffffffffffffffffffffffffffff1681526020019060010190808311610987575b5050505050905090565b6000808154809291906109ed906112cc565b9190505550565b600080fd5b600080fd5b6000819050919050565b610a11816109fe565b8114610a1c57600080fd5b50565b600081359050610a2e81610a08565b92915050565b600060208284031215610a4a57610a496109f4565b5b6000610a5884828501610a1f565b91505092915050565b610a6a816109fe565b82525050565b6000602082019050610a856000830184610a61565b92915050565b600073ffffffffffffffffffffffffffffffffffffffff82169050919050565b6000610ab682610a8b565b9050919050565b610ac681610aab565b82525050565b6000602082019050610ae16000830184610abd565b92915050565b600081519050919050565b600082825260208201905092915050565b6000819050602082019050919050565b600081519050919050565b600082825260208201905092915050565b60005b83811015610b4d578082015181840152602081019050610b32565b60008484015250505050565b6000601f19601f8301169050919050565b6000610b7582610b13565b610b7f8185610b1e565b9350610b8f818560208601610b2f565b610b9881610b59565b840191505092915050565b6000610baf8383610b6a565b905092915050565b6000602082019050919050565b6000610bcf82610ae7565b610bd98185610af2565b935083602082028501610beb85610b03565b8060005b85811015610c275784840389528151610c088582610ba3565b9450610c1383610bb7565b925060208a01995050600181019050610bef565b50829750879550505050505092915050565b60006020820190508181036000830152610c538184610bc4565b905092915050565b610c6481610aab565b8114610c6f57600080fd5b50565b600081359050610c8181610c5b565b92915050565b600060208284031215610c9d57610c9c6109f4565b5b6000610cab84828501610c72565b91505092915050565b600082825260208201905092915050565b6000610cd082610b13565b610cda8185610cb4565b9350610cea818560208601610b2f565b610cf381610b59565b840191505092915050565b60008115159050919050565b610d1381610cfe565b82525050565b6000608082019050610d2e6000830187610abd565b610d3b6020830186610a61565b8181036040830152610d4d8185610cc5565b9050610d5c6060830184610d0a565b95945050505050565b600080fd5b600080fd5b600080fd5b60008083601f840112610d8a57610d89610d65565b5b8235905067ffffffffffffffff811115610da757610da6610d6a565b5b602083019150836001820283011115610dc357610dc2610d6f565b5b9250929050565b60008060208385031215610de157610de06109f4565b5b600083013567ffffffffffffffff811115610dff57610dfe6109f9565b5b610e0b85828601610d74565b92509250509250929050565b60006020820190508181036000830152610e318184610cc5565b905092915050565b600081519050919050565b600082825260208201905092915050565b6000819050602082019050919050565b610e6e81610aab565b82525050565b6000610e808383610e65565b60208301905092915050565b6000602082019050919050565b6000610ea482610e39565b610eae8185610e44565b9350610eb983610e55565b8060005b83811015610eea578151610ed18882610e74565b9750610edc83610e8c565b925050600181019050610ebd565b5085935050505092915050565b60006020820190508181036000830152610f118184610e99565b905092915050565b7f4e487b7100000000000000000000000000000000000000000000000000000000600052602260045260246000fd5b60006002820490506001821680610f6057607f821691505b602082108103610f7357610f72610f19565b5b50919050565b600082905092915050565b7f4e487b7100000000000000000000000000000000000000000000000000000000600052604160045260246000fd5b60008190508160005260206000209050919050565b60006020601f8301049050919050565b600082821b905092915050565b6000600883026110157fffffffffffffffffffffffffffffffffffffffffffffffffffffffffffffffff82610fd8565b61101f8683610fd8565b95508019841693508086168417925050509392505050565b6000819050919050565b600061105c611057611052846109fe565b611037565b6109fe565b9050919050565b6000819050919050565b61107683611041565b61108a61108282611063565b848454610fe5565b825550505050565b600090565b61109f611092565b6110aa81848461106d565b505050565b5b818110156110ce576110c3600082611097565b6001810190506110b0565b5050565b601f821115611113576110e481610fb3565b6110ed84610fc8565b810160208510156110fc578190505b61111061110885610fc8565b8301826110af565b50505b505050565b600082821c905092915050565b600061113660001984600802611118565b1980831691505092915050565b600061114f8383611125565b9150826002028217905092915050565b6111698383610f79565b67ffffffffffffffff81111561118257611181610f84565b5b61118c8254610f48565b6111978282856110d2565b6000601f8311600181146111c657600084156111b4578287013590505b6111be8582611143565b865550611226565b601f1984166111d486610fb3565b60005b828110156111fc578489013582556001820191506020850194506020810190506111d7565b868310156112195784890135611215601f891682611125565b8355505b6001600288020188555050505b50505050505050565b82818337600083830152505050565b600061124a8385610cb4565b935061125783858461122f565b61126083610b59565b840190509392505050565b6000604082019050818103600083015261128681858761123e565b90506112956020830184610d0a565b949350505050565b7f4e487b7100000000000000000000000000000000000000000000000000000000600052601160045260246000fd5b60006112d7826109fe565b91507fffffffffffffffffffffffffffffffffffffffffffffffffffffffffffffffff82036113095761130861129d565b5b60018201905091905056fea2646970667358221220368064b7c31755c76821559f520730d379c7a95b6d2f5763a1f7ba842209efc564736f6c63430008120033",
  "linkReferences": {},
  "deployedLinkReferences": {}
}